:020000020000FC
:1000000000C058E05EBF5FE55DBF8D9A95985FEFD9
:100010005ABB57BBC2980E94DB0008E30E94B500A0
:100020000E94DB000EE00E94B50001E00E94B500D6
:100030000E94DB0006E00E94B5004FE044BB60E098
:1000400001E00E94B5000E94DB00E0E1F6E00E94C2
:10005000C90000EC0E94B50040EF45BB000053B35F
:10006000507F503FD9F7000053B3507F503FD9F332
:100070000E94F30053B3507F503FA9F35EEF55BB8E
:10008000000053B3507F503FB1F45DEF55BB00000B
:1000900053B3507F503F91F45BEF55BB000053B317
:1000A000507F503F71F457EF55BB000053B3507F62
:1000B000503F51F4D1CFE0E0F6E009C0E4E0F6E0D3
:1000C00006C0E8E0F6E003C0ECE0F6E000C05295C0
:1000D000569510F44591FCCF04910E94BF00A0E614
:1000E000B0E0A60FB11D0C936395633009F0B4CF57
:1000F0000E94DB00A0E6B0E00D91033339F40D91CE
:10010000043321F40D91073309F40CC001E00E947F
:10011000B5000E94DB00E0E2F6E00E94C9000E9408
:10012000EB008DCF01E00E94B5000E94DB00E4E30C
:10013000F6E00E94C90000EC0E94B500E2E4F6E09F
:100140000E94C90072E3959A0E94DB0095980E9474
:10015000E3007A95C1F701E00E94B5000E94DB0040
:10016000E2E5F6E00E94C900FFCF0BBBC098C19842
:10017000C29A0E94D000C2980E94D30008950BBB7F
:10018000C09AC198C29A0E94D000C2980E94D3001F
:1001900008950591003019F00E94BF00FACF08952C
:1001A0000000000008951F931CE30E94D0001A95E0
:1001B000E1F71F9108951F9314E10E94D3001A954F
:1001C000E1F71F9108951F9319E00E94DB001A9533
:1001D000E1F71F9108952F9324E60E94E3002A95EA
:1001E000E1F72F9108951F9318E00E94DB001A9504
:0601F000E1F71F910895E4
:100600003738392F3435362A3132332D43303D2BAC
:10061000456E7465722050617373776F72643A002F
:1006200050617373776F726420496E636F72726585
:1006300063740000436F646520436F727265637476
:100640000000446F6F72204F70656E696E672E2ECA
:100650002E00446F6F7220556E6C6F636B65640083
:00000001FF
